:100000000C9434000C943E000C943E000C943E0082
:100010000C943E000C943E000C943E000C943E0068
:100020000C943E000C943E000C943E000C943E0058
:100030000C943E000C943E000C943E000C943E0048
:100040000C943E000C943E000C943E000C943E0038
:100050000C943E000C943E000C943E000C943E0028
:100060000C943E000C943E0011241FBECFEFD8E04C
:10007000DEBFCDBF0E9423010C9448010C94000008
:1000800088E084B988E68AB9089514BC15BC93EF5A
:1000900094BD83E085BDA0EBB0E01C92E1EBF0E005
:1000A00010829C93808317BC18BC1092B3001092EE
:1000B000B400089587BD68BD08958093B300609330
:1000C000B400089560E08FEF0E945D0060E080E082
:1000D0000E945A002FEF81E19AE721508040904022
:1000E000E1F700C000006FEF80E00E945D0060E07B
:1000F00080E00E945A002FEF81E19AE72150804072
:100100009040E1F700C00000089560E080E00E94A8
:100110005D0060E080E00E945A002FEF81E19AE7E5
:10012000215080409040E1F700C00000089560E059
:100130008FEF0E945A0060E080E00E945D002FEF88
:1001400081E19AE7215080409040E1F700C0000033
:100150006FEF80E00E945A0060E080E00E945D0046
:100160002FEF81E19AE7215080409040E1F700C0F5
:1001700000000895CF93C82F60E00E945A0060E00D
:100180008C2F0E945D002FEF81E19AE72150804083
:100190009040E1F700C00000CF910895CF93C82FA1
:1001A000682F80E00E945A006C2F80E00E945D0062
:1001B0002FEF81E19AE7215080409040E1F700C0A5
:1001C0000000CF910895CF93C82F682F80E00E9440
:1001D0005A0060E08C2F0E945D002FEF81E19AE7CA
:1001E000215080409040E1F700C00000CF91089579
:1001F000CF93C82F60E00E945A006C2F80E00E94CD
:100200005D002FEF81E19AE7215080409040E1F7B7
:1002100000C00000CF910895CF93C82F0E94BA006C
:100220000E9485008C2F0E94CE000E9485008C2F9A
:100230000E94E3000E9485008C2F0E94F8000E941B
:100240008500CF9108950E9440000E9445000E94C1
:1002500097000E9485000E9462000E94850086E946
:100260000E940C010E94850080E40E940C010E9403
:10027000850024E530EA8CEF91E021503040804049
:100280009040D9F700C000C0000080E090E00895E1
:04029000F894FFCF10
:00000001FF
