S00D00004C616230382E73726563A0
S11300000C9434000C943E000C943E000C943E007E
S11300100C943E000C943E000C943E000C943E0064
S11300200C943E000C943E000C943E000C943E0054
S11300300C943E000C943E000C943E000C943E0044
S11300400C943E000C943E000C943E000C943E0034
S11300500C943E000C943E000C943E000C943E0024
S11300600C943E000C943E0011241FBECFEFD4E04C
S1130070DEBFCDBF0E9416010C942D010C9400002C
S113008020EC24BD84B58A6084BD98E095BD85B517
S1130090876085BDE0EBF0E0208380818A60808307
S11300A0E1EBF0E0908380818760808317BC18BC0B
S11300B01092B3001092B400089587BD68BD0895EE
S11300C08093B3006093B400089560E08FEF0E94C2
S11300D060002FE78AE196E0215080409040E1F7EC
S11300E000C000006FEF80E00E9460002FE78AE10B
S11300F096E0215080409040E1F700C00000089550
S113010060E080E00E94600060E080E00E945D00AA
S11301102FE78AE196E0215080409040E1F700C04B
S11301200000089560E08FEF0E945D002FE78AE1F0
S113013096E0215080409040E1F700C000006FEF4E
S113014080E00E945D002FE78AE196E02150804024
S11301509040E1F700C000000895CF93C82F60E0FD
S11301600E945D0060E08C2F0E9460002FE78AE10E
S113017096E0215080409040E1F700C00000CF910C
S11301800895CF93C82F682F80E00E945D006C2FE4
S113019080E00E9460002FE78AE196E021508040D1
S11301A09040E1F700C00000CF910895CF93C82F8D
S11301B0682F80E00E945D0060E08C2F0E94600048
S11301C02FE78AE196E0215080409040E1F700C09B
S11301D00000CF910895CF93C82F60E00E945D0086
S11301E06C2F80E00E9460002FE78AE196E02150A6
S11301F080409040E1F700C00000CF910895CF9374
S1130200C82F0E94AD000E9480008C2F0E94C10064
S11302100E9480008C2F0E94D6000E9480008C2FA8
S11302200E94EB000E948000CF9108950E9440003C
S11302300E9492000E9480000E9465000E9480003B
S11302408FEF0E94FF000E94800080E40E94FF0064
S11102500E94800080E090E00895F894FFCFB3
S9030000FC
