:100000000C943D000C945A000C945A000C945A0025
:100010000C945C000C945A000C945A000C945A00F6
:100020000C945A000C945A000C945A000C94C20080
:100030000C945A000C945A000C945A000C945A00D8
:100040000C945A000C945A000C945A000C945A00C8
:100050000C945A000C945A000C945A000C945A00B8
:100060000C945A000C945A00BC01CB01DA01E9014E
:10007000F801010210021F022E0211241FBECFEF51
:10008000D8E0DEBFCDBF11E0A0E0B1E0EEE7F5E0E3
:1000900002C005900D92A630B107D9F721E0A6E085
:1000A000B1E001C01D92A032B207E1F70E94AC029C
:1000B0000C94BD020C9400001F920F920FB60F9289
:1000C00011242F933F934F935F938F939F93EF93BD
:1000D000FF9386B180930901809107018093080105
:1000E00086B1809307018091840090918500909360
:1000F00015018093140180E036C0282F30E0F9010B
:10010000E65FFE4F9081913069F140910901909135
:100110000801942790FF1CC04091140150911501D3
:10012000F901EE0FFF1FEA5EFE4F5183408391E01D
:10013000F901E65FFE4F9083409114015091150143
:100140004130524028F4F901E15FFE4F91E0908385
:1001500090910901969590930901909108019695C7
:10016000909308018F5F853040F2FF91EF919F914E
:100170008F915F914F913F912F910F900FBE0F90F4
:100180001F9018951F920F920FB60F9211242F9364
:100190003F938F939F93EF93FF9381E080930601AA
:1001A00020E016C0822F90E0FC01E65FFE4F308118
:1001B000313069F0FC01E15FFE4F1082880F991F1A
:1001C000FC01EA5EFE4F8FEF9FEF918380832F5FEC
:1001D000253040F3FF91EF919F918F913F912F91A7
:1001E0000F900FBE0F901F90189588E084B988E695
:1001F0008AB915B81BB814BC15BC93EC94BD83E048
:1002000085BDA0EBB0E01C92E1EBF0E010829C9386
:10021000808317BC18BC1092B3001092B4000895EC
:1002200087BD08958093B300089560E00E94100197
:10023000089560E00E9412010895F894E8E6F0E065
:1002400080818D7F80830895789482E08093680018
:100250008FE180936C00089587B1806287B988B17F
:100260008F7D88B9089587B1806287B988B180622F
:1002700088B9089587B18F6187B988B18F6188B9CE
:10028000089587B1807E87B9089580E096E09093C5
:1002900089008093880082E080936F0080E48093DF
:1002A000800083E080938100089510928000109276
:1002B0008100109289001092880010926F0018B887
:1002C0001092060120E00CC0822F90E0FC01E15F5B
:1002D000FE4F31E03083FC01E65FFE4F10822F5F5E
:1002E000253090F3089520E00AC0822F90E0FC01B1
:1002F000FC5FDC01A15FBE4F8C9180832F5F2530B6
:10030000A0F3089520E00FC0822F90E0880F991F7E
:10031000FC01E45FFB4FDC01AA5EBE4F8D919C9116
:10032000918380832F5F253078F308950E941D010B
:100330000E9473010E942C010E9455010E943A0103
:1003400082E48A95F1F700C00E9433010E944501C2
:100350000E9441010E942401809106018130E1F751
:10036000089590E0FC013197E930F10508F085C06F
:10037000EC5CFF4F0C94B702809104019091000156
:10038000891B0E9415019091050180910001890F40
:100390000E94190108958091040190910101891B27
:1003A0000E9415019091050180910101890F0E9421
:1003B000190108958091040190910201891B0E9406
:1003C00015019091050180910201890F0E94190188
:1003D00008958091040190910301891B0E941501E9
:1003E0009091050180910301890F0E9419010895E0
:1003F000809104010E941501809105010E9419015C
:1004000008959091040180910301890F0E941501C4
:100410008091050190910301891B0E9419010895A3
:100420009091040180910201890F0E941501809131
:10043000050190910201891B0E9419010895909174
:10044000040180910101890F0E941501809105012D
:1004500090910101891B0E94190108959091040156
:1004600080910001890F0E941501809105019091F2
:100470000001891B0E941901089564E680E00E9432
:10048000100160E084E60E941201089580910F013E
:10049000813049F480911001813029F482E090E0AC
:1004A0000E94B101089580911001813049F480913A
:1004B0001101813029F484E090E00E94B101089597
:1004C00080911101813049F480911201813029F429
:1004D00086E090E00E94B101089580911201813080
:1004E00049F480911301813029F488E090E00E9462
:1004F000B101089580910F01813029F481E090E0ED
:100500000E94B101089580911001813029F483E0A7
:1005100090E00E94B101089580911101813029F489
:1005200085E090E00E94B101089580911201813030
:1005300029F487E090E00E94B101089580911301B1
:10054000813029F489E090E00E94B10108958AE0A9
:1005500090E00E94B10108950E94F5000E9496016A
:100560000E9482010E9473010E944602F7CFEE0FA3
:0E057000FF1F0590F491E02D0994F894FFCF41
:06057E00100C08045050AF
:00000001FF
