S01400004D6F746F72436F6E74726F6C2E737265631E
S11300000C943D000C945A000C945A000C945A0021
S11300100C945C000C945A000C945A000C945A00F2
S11300200C945A000C945A000C945A000C94CD0071
S11300300C945A000C945A000C945A000C945A00D4
S11300400C945A000C945A000C945A000C945A00C4
S11300500C945A000C945A000C945A000C945A00B4
S11300600C945A000C945A00B001B701BE01C501AA
S1130070CC01D301DA01E101E80111241FBECFEF65
S1130080D8E0DEBFCDBF11E0A0E0B1E0E8E5F5E0E7
S113009002C005900D92A030B107D9F721E0A0E08D
S11300A0B1E001C01D92A932B207E1F70E945302E8
S11300B00C94AA020C9400001F920F920FB60F9298
S11300C011242F938F939F93EF93FF938091840038
S11300D09091850090930B0180930A0186B18093DF
S11300E0110190911E0180911101892780931D01B6
S11300F08091110180931E0110921C013FC08091D8
S11301001D0180FF31C0E0911C01F0E0E45FFE4F6F
S11301108081813049F1E0911C01F0E080910A0175
S113012090910B01EE0FFF1FE050FF4F91838083EE
S113013080910A0190910B018130944040F0E0914C
S11301401C01F0E0E95EFE4F81E0808306C0E0918F
S11301501C01F0E0E95EFE4F1082E0911C01F0E02A
S1130160E45FFE4F81E0808380911D01869580933A
S11301701D0180911C018F5F80931C0180911C01E3
S1130180853008F4BCCFFF91EF919F918F912F910F
S11301900F900FBE0F901F9018951F920F920FB6DD
S11301A00F9211248F939F93EF93FF9310921C014E
S11301B025C0E0911C01F0E0E45FFE4F80818111D5
S11301C018C0E0911C01F0E0E45FFE4F81E0808301
S11301D0E0911C01F0E0E95EFE4F8083E0911C0198
S11301E0F0E0EE0FFF1FE050FF4F80E09BE09183B3
S11301F0808380911C018F5F80931C0180911C017E
S11302008530B8F2FF91EF919F918F910F900FBEBF
S11302100F901F90189587B1806287B918B8089518
S113022088B18F7D88B90895F8940E9410018FE1F8
S113023080931E0120E00EC0822F90E0FC01E45F59
S1130240FE4F1082880F991FFC01E050FF4F11826E
S113025010822F5F253080F318B810928500109219
S11302608400A0E8B0E01C92E1E8F0E01082109273
S1130270820080E88C9380E09BE0909389008093D7
S1130280880092E090936F0087B18F6187B988B13D
S11302908F6188B982E48A95F1F700C087B18062E2
S11302A087B988B1806288B9908387B1807E87B925
S11302B0E8E6F0E0808182608083ECE6F0E0808113
S11302C08F618083789480910C018130E1F7809173
S11302D00D018130C1F780910E018130A1F7809129
S11302E00F01813081F780911001813061F7109204
S11302F08100089588E084B988E68AB915B81BB8E6
S113030014BC15BC93EF94BD83E085BDA0EBB0E0B5
S11303101C92E1EBF0E010829C93808317BC18BC24
S11303201092B3001092B400089567BD88BD08957B
S11303306093B3008093B400089560E00E94950137
S1130340089560E00E949801089590E0FC013197BF
S1130350E930F10508F043C0EC5CFF4F0C94A402B3
S11303608AE00E949D018AE50E94A10108958FE020
S11303700E949D0185E50E94A101089584E10E94E7
S11303809D0180E50E94A101089589E10E949D01DB
S11303908BE40E94A101089582E30E949D0182E3FF
S11303A00E94A10108958BE40E949D0189E10E94AD
S11303B0A101089580E50E949D0184E10E94A101AC
S11303C0089585E50E949D018FE00E94A101089592
S11303D08AE50E949D018AE00E94A101089560E0DF
S11303E080E00E94950160E080E00E9498010895F9
S11303F080911201813041F480911301813021F404
S113040082E00E94A501089580911301813041F496
S113041080911401813021F484E00E94A5010895A3
S113042080911401813041F480911501813021F4CF
S113043086E00E94A501089580911501813041F460
S113044080911601813021F488E00E94A50108956D
S113045080911201813019F40E94A50108958091C0
S11304601301813021F483E00E94A5010895809155
S11304701401813021F485E00E94A5010895809142
S11304801501813021F487E00E94A501089580912F
S11304901601813021F489E00E94A50108958AE0C3
S11304A00E94A50108950E947A010E940B0120E098
S11304B00EC0822F90E0FC01EE0FFF1FE15EFE4FA5
S11304C011821082FC01EE5EFE4F10822F5F2530F8
S11304D080F3C0E019C00E94140180E012C0E82F2C
S11304E0F0E0EE0FFF1FDF01A050BF4F4D915C9174
S11304F0E15EFE4F20813181240F351F318320833B
S11305008F5F853060F3CF5FC43028F320E017C0DD
S1130510822F90E0FC01EE0FFF1FE15EFE4F408151
S113052051814115504128F4FC01EE5EFE4F1082CA
S113053005C0FC01EE5EFE4F31E030832F5F2530B5
S113054038F30E94F801B3CFEE0FFF1F0590F4912A
S10B0550E02D0994F894FFCF9B
S9030000FC
