:020000020000FC
:100000000FEF0AB903E007B902E008B908E00EBF34
:100010000FEF0DBF00000100020005000A000F00F5
:1000200015001D0025002E00380043004E005A0028
:10003000660073007F008B009800A400B000BB0036
:10004000C600D000D900E100E900EF00F400F9009B
:10005000FC00FD00FE0037C0F0E0E4E1B2E0A0E00B
:10006000222401E2201628F4059015900D92239485
:10007000F9CF089500240A94F1F708958AE070E01A
:10008000000060E06A95F1F77A95D9F78A95B9F79B
:1000900008955BB900E008B9EDDF01E008B9089503
:1000A000112461E25527A0E0B2E05D91F2DF1394E4
:1000B0006115D9F75E911A944FB74F93EADF4F91CC
:0C00C0004FBFC1F70895C8DFEBDFFDCF94
:00000001FF
