:020000020000FC
:040000000C94340028
:080028000C9467000C945800D1
:1000680008E00EBF0FEF0DBFB2E0A0E00FEF1FEFEB
:100078001D930D93B3E0A0E000E010E01D930D93F5
:1000880011E400E40093800002E004B905B90024FB
:100098000FEF009389000093880002E200936F003D
:1000A800109381007894FFCF509084006090850071
:1000B800B2E0A0E03D904D90350C461C409289007E
:1000C8003092880018956090860070908700A0E0B4
:1000D800B3E03D904D90A0E0B3E06D927D9288949E
:0E00E80063187408A0E0B2E06D927D92189546
:00000001FF
