:020000020000FC
:040000000C946500F7
:04002C000C94C00070
:100068009B00BD00D400D400E300EE009B00BD005F
:100078009B00BD009B00BD00D400D400D400D40078
:10008800D400D4009B00BD0070009F0070009F004A
:100098000D901D90202C312C02E00A9529F08894AF
:1000A800379427940A95FACF88940218130800E029
:1000B80000FF06C0422C532C202C312C042C152C6C
:1000C800089508E00EBF0FEF0DBF46D0B2E0A0E0E4
:1000D800DFDF05B101FD68D001FF5DD019E000E464
:1000E8000093800002E004B905B902E000936F00B4
:1000F800109381007894442743950CD005B10F9351
:1001080000E005B9C5DF0F9105B94C30A9F7B2E099
:10011800A0E0F1CF6F937F938F9382E370E00000AC
:1001280060E06A95F1F77A95D9F78A95B9F78F91D2
:100138007F916F9108956F937F938F9384E170E01F
:10014800000060E06A95F1F77A95D9F78A95B9F7D2
:100158008F917F916F9108950F93F0E0E8E6B2E0F8
:10016800A0E0222408E1201628F4059015900D92AD
:100178002394F9CF0F9108950F930FB70F9305B1FB
:1001880001FD12D001FF07D005B1009505B90F9107
:100198000FBF0F9118950F93012D00938900002D23
:1001A800009388000F9108950F93032D0093890001
:0A01B800022D009388000F910895B6
:00000001FF
