S00D00004C616230372E73726563A1
S11300000C9434000C9451000C9451000C94510045
S11300100C9451000C9451000C9451000C94510018
S11300200C9451000C9451000C9451000C94510008
S11300300C9451000C9451000C9451000C945100F8
S11300400C9451000C9451000C9451000C945100E8
S11300500C9451000C9451000C9451000C945100D8
S11300600C9451000C94510011241FBECFEFD8E022
S1130070DEBFCDBF11E0A0E0B1E0E6ECF1E002C0EC
S113008005900D92A630B107D9F721E0A6E0B1E0C2
S113009001C01D92A630B207E1F70E94D8000C946B
S11300A0E1000C94000084EA8093BC008091BC00C1
S11300B08823E4F7089584E98093BC00089580932D
S11300C0BB0084E88093BC008AE18A95F1F700C004
S11300D08091BC008823E4F708958093BB0084E8F2
S11300E08093BC008091BC008823E4F70895CF93EB
S11300F0DF930E94530080EA0E945F0080E00E9428
S11301005F0080E00E945F00C0E0D0E007C0FE0115
S1130110EE5FFE4F80810E946D002196C430D105B0
S1130120B4F30E945B00DF91CF91089581E0809346
S1130130BC00E9EBF0E080818E7F808388E48093CB
S1130140B800089584EC8093BC008091BC0088239F
S1130150E4F78091BB00E0910001F09101019F015F
S11301602F5F3F4F30930101209300018083089556
S1130170CF93DF930E94530080EA0E945F0080E0E7
S11301800E945F0080E00E945F000E94530081EAA9
S11301900E945F00C0E0D0E003C00E94A20021964C
S11301A0C430D105D4F30E945B00DF91CF91089550
S11301B00E9496000E9477000E94B80080E090E0C0
S10901C00895F894FFCF3E
S10901C60002414C455803
S9030000FC
