:020000020000FC
:10000000F0E0E4E00000000000000000A300B60003
:10001000C1009800A1C09F918F91AF91BF91CF91E6
:10002000DF91E0E6F1E0AF93BF93CF93DF9305E07C
:1000300098940A9519F00E900A90FBCF00E010E01A
:100040000C9007FC01E0188017FC11E0011720E07C
:1000500009F421E0DF91CF91BF91AF91EF93FF932E
:1000600030E0301791F045E0EA2FFB2F08945FB79E
:100070005F934A9551F05F915FBF0290009460E0FA
:10008000061E5FB75F930082F4CF00FD5F9130E002
:10009000311791F045E0EC2FFD2F08945FB75F9387
:1000A0004A9551F00290009460E05F915FBF061E98
:1000B0005FB75F930082F4CF10FD5F91FF91EF91E6
:1000C00069E050E0EF93FF936A9511F05193FCCFF4
:1000D000FF91EF91889465E06A95F1F075E03E90AC
:1000E000CF93DF93EF93FF93BF92BF907A9571F018
:1000F000BFB64A90349C612C502CA080C180A51CB6
:10010000C61CA192C082BFBEBF92EFCFFF91EF91FC
:10011000E395DF91CF91E0CF31E0231791F0A0E696
:10012000B1E019E008940FB70F931A9551F00C90B5
:10013000009440E00F910FBF041E0D920FB70F9374
:10014000F4CFA0E6B1E009E00A9519F01D911F93E4
:10015000FBCF8F939F9308950FEF0DBF08E00EBF65
:1001600008E0A0E0B1E011D0A4E0B1E0C8E0D1E047
:10017000DF93CF93BF93AF934EDF08E0B2E0A4E0EC
:100180000F900D920A95E1F709C02224201628F459
:0E019000059015900D922394F9CF0895FFCF9E
:00000001FF
