S01300004D617A65536F6C766572312E73726563D8
S11300000C9454000C9471000C9471000C947100C5
S11300100C942C020C9471000C9471000C947100DB
S11300200C9471000C9471000C9471000C949D025A
S11300300C9471000C9471000C9471000C94710078
S11300400C9471000C9471000C9471000C94710068
S11300500C9471000C9471000C9471000C94710058
S11300600C9471000C9471005C0463046A047104C0
S113007078047F0486048D0494049B04C904F90461
S11300802805400543054C05ED06F406FB0602076A
S11300900907100717071E0725072C0765079E0782
S11300A0F607FF0702080B0811241FBECFEFD8E0A4
S11300B0DEBFCDBF11E0A0E0B1E0E0E0F4E102C0BA
S11300C005900D92A030B107D9F722E0A0E0B1E08D
S11300D001C01D92AF3BB207E1F70E94D8090C940E
S11300E0FE090C940000FC012081283C30F431E02E
S11300F0320F3083E20FF11D61830895DC019C917E
S1130100992339F0E92FF0E03197EA0FFB1F818141
S113011008958FE30895FC012081222331F02150BA
S11301202083E20FF11D818108958FE30895FC017E
S113013080810895CF93DF938CED91E00E94970026
S1130140813051F48CED91E00E948B00682F8DE09A
S113015091E00E94730081C0823099F48CED91E0AB
S11301600E948B00682F8DE091E00E9473008CED5B
S113017091E00E948B00682F8DE091E00E94730053
S11301806CC0833009F058C08CED91E00E948B0064
S1130190CFEAD2E088838CED91E00E948B008983C2
S11301A08CED91E00E948B008A838881833571F401
S11301B08091B002853551F48091B1028C3431F4D0
S11301C062E58DE091E00E94730047C08091AF0228
S11301D08C3471F48091B002853551F48091B10270
S11301E0833531F462E58DE091E00E94730035C0FF
S11301F08091AF028C3471F48091B002853551F452
S11302008091B1028C3431F463E58DE091E00E9479
S1130210730023C0CFEAD2E068818DE091E00E94B0
S1130220730069818DE091E00E9473006A818DE022
S113023091E00E94730011C08CED91E00E948B004C
S1130240CFEAD2E088838CED91E00E948B00898311
S11302508CED91E00E948B008A83DF91CF91089509
S1130260CF93DF938091AF02833571F48091B00214
S1130270853551F48091B1028C3431F462E58DE01E
S113028091E00E94730035C08091AF028C3471F408
S11302908091B002853551F48091B102833531F4F7
S11302A062E58DE091E00E94730023C08091AF026B
S11302B08C3471F48091B002853551F48091B1028F
S11302C08C3431F463E58DE091E00E94730011C039
S11302D0CFEAD2E068818DE091E00E9473006981E9
S11302E08DE091E00E9473006A818DE091E00E94AC
S11302F07300DF91CF910895CF93DF9309C08DE010
S113030091E00E948B00682F8CED91E00E947300B5
S11303108DE091E00E9497008111F1CF8CED91E086
S11303200E949700833008F494C08CED91E00E9401
S11303308B00CFEAD2E088838CED91E00E948B00A1
S113034089838CED91E00E948B008A838CED91E08F
S11303500E949700811167C00E94300109C08DE09E
S113036091E00E948B00682F8CED91E00E94730055
S11303708DE091E00E9497008111F1CF54C08091EB
S1130380AF02833581F48091B002853561F48091A8
S1130390B1028C3441F462E58CED91E00E9473006B
S11303A00E949A0040C08091AF028C3481F4809105
S11303B0B002853561F48091B1028C3441F463E577
S11303C08CED91E00E9473000E949A002CC08091F1
S11303D0AF028C3481F48091B002853561F4809150
S11303E0B102833541F462E58CED91E00E94730023
S11303F00E949A0018C0CFEAD2E068818DE091E0B3
S11304000E947300898188838A8189838CED91E0BD
S11304100E948B008A838CED91E00E9497008111E9
S113042002C00E9430018CED91E00E94970081117E
S1130430A6CF09C08DE091E00E948B00682F8CED5F
S113044091E00E9473008DE091E00E949700811179
S1130450F1CFDF91CF9108951F920F920FB60F92B3
S113046011242F938F939F93EF93FF938091840094
S11304709091850090930C0180930B0186B1809339
S1130480DB019091B4028091DB0189278093B30250
S11304908091DB018093B4021092B2023FC080913C
S11304A0B30280FF31C0E091B202F0E0EA52FE4FA5
S11304B08081813049F1E091B202F0E080910B013A
S11304C090910C01EE0FFF1FEF5FFE4F918380832D
S11304D080910B0190910C018130944040F0E091A7
S11304E0B202F0E0E655FD4F81E0808306C0E09162
S11304F0B202F0E0E655FD4F1082E091B202F0E066
S1130500EA52FE4F81E080838091B3028695809306
S1130510B3028091B2028F5F8093B2028091B202E3
S1130520853008F4BCCFFF91EF919F918F912F916B
S11305300F900FBE0F901F9018951F920F920FB639
S11305400F9211248F939F93EF93FF931092B20213
S113055025C0E091B202F0E0EA52FE4F80818111A1
S113056018C0E091B202F0E0EA52FE4F81E08083CD
S1130570E091B202F0E0E655FD4F8083E091B202D3
S1130580F0E0EE0FFF1FEF5FFE4F80E09BE09183F2
S113059080838091B2028F5F8093B2028091B20215
S11305A08530B8F2FF91EF919F918F910F900FBE1C
S11305B00F901F90189587B1806287B918B8109270
S11305C00D011092DC01089588B18F7D88B90895DA
S11305D0F8940E94E4028FE18093B40220E00EC0FC
S11305E0822F90E0FC01EA52FE4F1082880F991F7F
S11305F0FC01EF5FFE4F118210822F5F253080F3E4
S113060018B81092850010928400A0E8B0E01C9203
S1130610E1E8F0E010821092820080E88C9380E0A0
S11306209BE0909389008093880092E090936F0000
S113063087B18F6187B988B18F6188B982E48A955F
S1130640F1F700C087B1806287B988B1806288B948
S1130650908387B1807E87B9E8E6F0E0808182608C
S11306608083ECE6F0E080818F61808378948091D0
S1130670D6018130E1F78091D7018130C1F78091B3
S1130680D8018130A1F78091D901813081F780911F
S1130690DA01813061F710928100089588E084B90D
S11306A088E68AB915B81BB814BC15BC93EF94BD81
S11306B083E085BDA0EBB0E01C92E1EBF0E010829A
S11306C09C93808317BC18BC1092B3001092B400A2
S11306D0089567BD88BD08956093B3008093B40006
S11306E0089560E00E946903089560E00E946C032D
S11306F0089560E080E00E946C0360E080E00E9466
S11307006903089568E280E00E946C0360E088E277
S11307100E94690380E007C0EFE4F3EC3197F1F73E
S113072000C000008F5F8A32B8F30E94790380E032
S113073007C0EFE4F3EC3197F1F700C000008F5FDE
S11307408A32B8F3089560E088E20E946C0368E29C
S113075080E00E94690380E007C0EFE4F3EC319786
S1130760F1F700C000008F5F8A32B8F30E9479036A
S113077080E007C0EFE4F3EC3197F1F700C000002C
S11307808F5F8A32B8F3089568E280E00E946C03B8
S113079060E088E20E94690380E007C0EFE4F3ECC4
S11307A03197F1F700C000008F5F8235B8F30E94E3
S11307B0790380E007C0EFE4F3EC3197F1F700C070
S11307C000008F5F8235B8F3089588E20E947503B4
S11307D088E20E94710380E007C0EFE4F3EC3197F4
S11307E0F1F700C000008F5F8C31B8F30E947903E9
S11307F080E007C0EFE4F3EC3197F1F700C00000AC
S11308008F5F8436B8F30895CF9320E00EC0822F13
S113081090E0FC01EE0FFF1FEB54FD4F118210829C
S1130820FC01EB55FD4F10822F5F253080F3C0E0B3
S113083019C00E94E80280E012C0E82FF0E0EE0F39
S1130840FF1FDF01AF5FBE4F4D915C91EB54FD4F35
S113085020813181240F351F318320838F5F8530C0
S113086060F3CF5FC43028F320E017C0822F90E0FC
S1130870FC01EE0FFF1FEB54FD4F408151814115E8
S1130880504128F4FC01EB55FD4F108205C0FC01DA
S1130890EB55FD4F31E030832F5F253038F3CF9196
S11308A0089590E0FC013197E031F10508F0FDC0B6
S11308B0EC5CFF4F0C94F80981E00E9471038FE413
S11308C00E94750308958AE00E94710386E40E94E1
S11308D07503089584E10E9471038CE30E947503FB
S11308E008958CE10E94710384E30E9475030895C6
S11308F088E20E94710388E20E947503089584E3EC
S11309000E9471038CE10E94750308958CE30E9498
S1130910710384E10E947503089586E40E947103C3
S11309208AE00E94750308958FE40E94710381E0B8
S11309300E94750308950E94E5030E9404048091B7
S1130940A502811113C08091A60281110FC080916C
S1130950A70281110BC08091A802811107C0809168
S1130960A902811103C00E94820308958091A70205
S1130970813049F08091A602813029F08091A8024B
S1130980813009F09AC063E58DE091E00E94730024
S113099008950E94E5030E9404048091A502811138
S11309A013C08091A60281110FC08091A70281110A
S11309B00BC08091A802811107C08091A902811106
S11309C003C00E94A30308958091A702813049F0D7
S11309D08091A602813029F08091A802813009F02B
S11309E06CC00E94A3036CE48DE091E00E9473004C
S11309F008950E94E5030E9404048091A7028111D6
S1130A0008C00E94A3036CE48DE091E00E9473008F
S1130A1008958091A502813099F48091A6028130D5
S1130A2079F48091A702813059F48091A802813031
S1130A3039F48091A902813019F48093000108955A
S1130A400E94A3036CE48DE091E00E94730008957A
S1130A500E94790380E00AC02FE73AE196E0215032
S1130A6030409040E1F700C000008F5F8A30A0F36F
S1130A700E94C40365E58DE091E00E94730008952F
S1130A800E94E503089560E084E10E946C0364E140
S1130A9080E00E946903089564E180E00E946C0391
S1130AA060E084E10E946903089560E080E00E94B0
S1130AB0690360E080E00E946C0308958091A502C0
S1130AC08130A1F48091A602813081F48091A70243
S1130AD081110CC08091A802811108C08091A902E3
S1130AE0811104C082E00E94510408958091A502FE
S1130AF0811114C08091A602813081F48091A702F3
S1130B00813061F48091A802811108C08091A9020A
S1130B10811104C084E00E94510408958091A502CB
S1130B20811114C08091A602811110C08091A70286
S1130B30813061F48091A802813041F48091A9024E
S1130B40811104C086E00E94510408958091A50299
S1130B50811114C08091A602811110C08091A70256
S1130B6081110CC08091A802813041F48091A902C6
S1130B70813021F488E00E94510408958091A502F7
S1130B808130A1F48091A602811110C08091A70246
S1130B9081110CC08091A802811108C08091A90222
S1130BA0811104C081E00E94510408958091A5023E
S1130BB0811114C08091A602813081F48091A70232
S1130BC081110CC08091A802811108C08091A902F2
S1130BD0811104C083E00E94510408958091A5020C
S1130BE0811114C08091A602811110C08091A702C6
S1130BF0813061F48091A802811108C08091A9021A
S1130C00811104C085E00E94510408958091A502D9
S1130C10811114C08091A602811110C08091A70295
S1130C2081110CC08091A802813041F48091A90205
S1130C30811104C087E00E94510408958091A502A7
S1130C40811114C08091A602811110C08091A70265
S1130C5081110CC08091A802811108C08091A90261
S1130C60813021F489E00E94510408958091A50205
S1130C70811114C08091A602811110C08091A70235
S1130C80813061F48091A802813041F48091A902FD
S1130C90813021F48AE00E94510408958091A502D4
S1130CA08130A1F48091A602813081F48091A70261
S1130CB0813061F48091A802811108C08091A90259
S1130CC0811104C08BE00E94510408958091A50213
S1130CD08130A1F48091A602813081F48091A70231
S1130CE0813061F48091A802813041F48091A9029D
S1130CF0813021F48CE00E94510408958091A50272
S1130D00811114C08091A602811110C08091A702A4
S1130D1081110CC08091A802811108C08091A902A0
S1130D20811104C08DE00E94510408958091A502B0
S1130D30811114C08091A602813081F48091A702B0
S1130D40813061F48091A802813041F48091A9023C
S1130D50811104C08CE00E94510408958091A50281
S1130D608130A1F48091A602813081F48091A702A0
S1130D70813061F48091A802813041F48091A9020C
S1130D80811104C080E10E94510408958091A5025C
S1130D90811114C08091A602813081F48091A70250
S1130DA0813061F48091A802813041F48091A902DC
S1130DB0813021F48FE00E945104089583E60E945B
S1130DC05104089590E0FC013197E031F10508F0F9
S1130DD02BC1EC5BFF4F0C94F80981E00E94710376
S1130DE08FE40E94750308958AE00E94710386E4EB
S1130DF00E947503089584E10E9471038CE30E94AC
S1130E00750308958CE10E94710384E30E947503C5
S1130E10089588E20E94710388E20E947503089590
S1130E2084E30E9471038CE10E94750308958CE3AE
S1130E300E94710384E10E947503089586E40E9470
S1130E4071038AE00E94750308958FE40E94710380
S1130E5081E00E94750308950E94E5030E94040442
S1130E608091A70281110BC08091A802811107C053
S1130E708091A602811103C00E948203089580918B
S1130E80A702813049F08091A602813029F0809137
S1130E90A802813009F0D0C08CED91E00E947E0060
S1130EA0823519F40E94820302C00E94E5038CED8E
S1130EB091E00E948B002FE78AE196E02150804068
S1130EC09040E1F700C0000008950E94E5030E94ED
S1130ED004048091A60281110BC08091A7028111A4
S1130EE007C08091A802811103C00E94A303089542
S1130EF08091A702813049F08091A602813029F0C7
S1130F008091A802813009F097C08CED91E00E9495
S1130F107E008C3419F40E94A30302C00E94E503EE
S1130F208CED91E00E948B002FE78AE196E021503E
S1130F3080409040E1F700C0000008950E94E5035E
S1130F400E9404048091A70281111BC08CED91E0E2
S1130F500E947E008C3419F40E94A30304C08235DD
S1130F6011F40E9482038CED91E00E948B002FE724
S1130F708AE196E0215080409040E1F700C00000F3
S1130F8008958091A502813099F48091A602813060
S1130F9079F48091A702813059F48091A8028130BC
S1130FA039F48091A902813019F4809300010895E5
S1130FB08CED91E00E947E008C3419F40E94A3030E
S1130FC007C0823519F40E94820302C00E94E5031F
S1130FD08CED91E00E948B002FE78AE196E021508E
S1130FE080409040E1F700C00000089560E088E28E
S1130FF00E94690368E280E00E946C0308950E94E5
S1131000E503089560E084E10E946C0364E180E0FC
S11310100E946903089564E180E00E946C0360E02B
S113102084E10E946903089560E080E00E946903FE
S113103060E080E00E946C0308958091A5028130F5
S1131040A1F48091A602813081F48091A7028111DC
S11310500CC08091A802811108C08091A90281115D
S113106004C082E00E94E20608958091A5028111E5
S113107014C08091A602813081F48091A70281304E
S113108061F48091A802811108C08091A9028111A4
S113109004C084E00E94E20608958091A5028111B3
S11310A014C08091A602811110C08091A7028130E2
S11310B061F48091A802813041F48091A9028111E8
S11310C004C086E00E94E20608958091A502811181
S11310D014C08091A602811110C08091A7028111D1
S11310E00CC08091A802813041F48091A902813022
S11310F021F488E00E94E20608958091A5028130DF
S1131100A1F48091A602811110C08091A7028111DF
S11311100CC08091A802811108C08091A90281119C
S113112004C081E00E94E20608958091A502811125
S113113014C08091A602813081F48091A7028111AC
S11311400CC08091A802811108C08091A90281116C
S113115004C083E00E94E20608958091A5028111F3
S113116014C08091A602811110C08091A702813021
S113117061F48091A802811108C08091A9028111B3
S113118004C085E00E94E20608958091A5028111C1
S113119014C08091A602811110C08091A702811110
S11311A00CC08091A802813041F48091A902811180
S11311B004C087E00E94E20608958091A50281118F
S11311C014C08091A602811110C08091A7028111E0
S11311D00CC08091A802811108C08091A9028130BD
S11311E021F489E00E94E20608958091A50281110C
S11311F014C08091A602811110C08091A702813091
S113120061F48091A802813041F48091A902813077
S113121021F48AE00E94E20608958091A5028130BB
S1131220A1F48091A602813081F48091A7028130DB
S113123061F48091A802811108C08091A9028111F2
S113124004C08BE00E94E20608958091A5028130DB
S1131250A1F48091A602813081F48091A7028130AB
S113126061F48091A802813041F48091A902813017
S113127021F48CE00E94E20608958091A502811178
S113128014C08091A602811110C08091A70281111F
S11312900CC08091A802811108C08091A90281111B
S11312A004C08DE00E94E20608958091A502811198
S11312B014C08091A602813081F48091A70281300C
S11312C061F48091A802813041F48091A9028111D6
S11312D004C08CE00E94E20608958091A50281304A
S11312E0A1F48091A602813081F48091A70281301B
S11312F061F48091A802813041F48091A9028111A6
S113130004C080E10E94E20608958091A502811143
S113131014C08091A602813081F48091A7028130AB
S113132061F48091A802813041F48091A902813056
S113133021F48FE00E94E206089583E60E94E2060B
S113134008950AC08FE493EC0197F1F700C0000000
S11313500E9404040E945E0580910001813091F78F
S11313600895109200010AC08FE493EC0197F1F7FD
S113137000C000000E9404040E941D088091000126
S1131380813091F708950E94A10980E00AC02FE7F7
S11313903AE196E0215030409040E1F700C000006F
S11313A08F5F8233A0F30E947C010E94B1090895EB
S11313B00E944E030E94DB0280E00AC02FE73AE15C
S11313C096E0215030409040E1F700C000008F5F6C
S11313D08A30A0F30E94C3092FE73AE186E0215046
S11313E030408040E1F700C0000080E090E00895C4
S11313F0EE0FFF1F0590F491E02D0994F894FFCFB0
S9030000FC
