:020000020000FC
:100000000FEF0AB903E007B902E008B908E00EBF34
:100010000FEF0DBF33C000240A94F1F7089581E07B
:1000200070E0000060E06A95F1F77A95D9F78A955B
:10003000B9F7089580E08A950000E9F708955BB963
:1000400000E008B9E8DF01E008B908950024E7DF1F
:1000500003940316E1F708954FEF55273F93EFDF21
:1000600053954517E1F7F2DF5A954FB74F93E7DF06
:100070004F914FBFC9F73F91E9DF089535E0ECDFBD
:02008000FDCFB2
:00000001FF
