:020000020000FC
:1000000008E00EBF0FEF0DBF0CEF0AB901E00BB90E
:1000100000E007B90FE308B90C94290003950BB968
:100020000A9501D008958AE070E0000060E06A95CA
:10003000F1F77A95D9F78A95B9F708958894001F52
:1000400008F001C004600895889402FD08940795A3
:10005000089506B18894001F8894001FDFDF47E0F1
:1000600059B150FD01C006C04A9519F0E7DFD6DF4F
:10007000FBCF06C04A9519F0E7DFD0DFFBCF00C009
:02008000E8CFC7
:00000001FF
