:020000020000FC
:040000000C946300F9
:04002C000C94A70089
:10006800E0008D00CE005E0005004700BD00700076
:10007800CE005E007100640069006A00BD00700077
:10008800720077008C007E00120086000D901D9093
:10009800202C312C02E00A9529F088943794279473
:1000A8000A95FACF88940218130800E000FF06C0EA
:1000B800422C532C202C312C042C152C089508E0AC
:1000C8000EBF0FEF0DBF2FD0B2E0A0E0DFDF05B10C
:1000D80001FD51D001FF46D019E000E400938000F3
:1000E80002E004B905B902E000936F0010938100A3
:1000F80078944427439506D0C9DF4B30D9F7B2E04E
:10010800A0E0F7CF6F937F938F9384E670E00000B1
:1001180060E06A95F1F77A95D9F78A95B9F78F91E2
:100128007F916F9108950F93F0E0E8E6B2E0A0E0C8
:10013800222406E1201628F4059015900D922394A8
:10014800F9CF0F9108950F930FB70F9305B101FDE4
:1001580012D001FF07D005B1009505B90F910FBF67
:100168000F9118950F93012D00938900002D00938E
:1001780088000F9108950F93032D00938900022D95
:08018800009388000F91089517
:00000001FF
