:100000000C9434000C9451000C9451000C94510049
:100010000C9453000C9451000C9451000C9451001A
:100020000C9451000C9451000C9451000C94B900A4
:100030000C9451000C9451000C9451000C945100FC
:100040000C9451000C9451000C9451000C945100EC
:100050000C9451000C9451000C9451000C945100DC
:100060000C9451000C94510011241FBECFEFD8E026
:10007000DEBFCDBF11E0A0E0B1E0ECEFF2E002C0E6
:1000800005900D92A030B107D9F721E0A0E0B1E0D2
:1000900001C01D92AA31B207E1F70E9477010C94CA
:1000A0007C010C9400001F920F920FB60F92112446
:1000B0002F933F934F935F938F939F93EF93FF9370
:1000C00086B180930301809101018093020186B182
:1000D00080930101809184009091850090930F019D
:1000E00080930E0180E036C0282F30E0F901EC5FEC
:1000F000FE4F9081913069F140910301909102018E
:10010000942790FF1CC040910E0150910F01F901FE
:10011000EE0FFF1FE05FFE4F5183408391E0F90136
:10012000EC5FFE4F908340910E0150910F014130E2
:10013000524028F4F901E75FFE4F91E090839091DF
:1001400003019695909303019091020196959093E7
:1001500002018F5F853040F2FF91EF919F918F9167
:100160005F914F913F912F910F900FBE0F901F9075
:1001700018951F920F920FB60F9211242F933F9351
:100180008F939F93EF93FF9381E08093000120E092
:1001900016C0822F90E0FC01EC5FFE4F30813130C1
:1001A00069F0FC01E75FFE4F1082880F991FFC0188
:1001B000E05FFE4F8FEF9FEF918380832F5F2530AD
:1001C00040F3FF91EF919F918F913F912F910F906D
:1001D0000FBE0F901F90189588E084B988E68AB901
:1001E00015B81BB814BC15BC83EF84BD83E085BD76
:1001F000A0EBB0E01C92E1EBF0E0108293EE9C9358
:10020000808317BC18BC1092B3001092B4000895FC
:10021000F894E8E6F0E080818D7F808308957894FB
:1002200082E0809368008FE180936C00089587B12D
:10023000806287B988B18F7D88B9089587B180625F
:1002400087B988B1806288B9089587B18F6187B90D
:1002500088B18F6188B9089587B1807E87B9089584
:1002600080E096E0909389008093880082E08093FC
:100270006F0080E48093800083E080938100089584
:1002800010928000109281001092890010928800D4
:1002900010926F0018B81092000120E00CC0822F5D
:1002A00090E0FC01E75FFE4F31E03083FC01EC5F42
:1002B000FE4F10822F5F253090F308950E940801B1
:1002C0000E9417010E9440010E94250182E48A9544
:1002D000F1F700C00E941E010E9430010E942C0113
:1002E0000E940F01809100018130E1F708950E9482
:0C02F000EC000E945E01FDCFF894FFCFEF
:00000001FF
