:100000000C9434000C9451000C9451000C94510049
:100010000C9453000C9451000C9451000C9451001A
:100020000C9451000C9451000C9451000C94C40099
:100030000C9451000C9451000C9451000C945100FC
:100040000C9451000C9451000C9451000C945100EC
:100050000C9451000C9451000C9451000C945100DC
:100060000C9451000C94510011241FBECFEFD8E026
:10007000DEBFCDBF11E0A0E0B1E0E2E0F3E002C0FE
:1000800005900D92A030B107D9F721E0A0E0B1E0D2
:1000900001C01D92AA31B207E1F70E9478010C94C9
:1000A0007F010C9400001F920F920FB60F92112443
:1000B0002F938F939F93EF93FF9380918400909160
:1000C000850090930B0180930A0186B18093110102
:1000D00090911901809111018927809318018091D5
:1000E000110180931901109217013FC080911801EE
:1000F00080FF31C0E0911701F0E0E45FFE4F8081A6
:10010000813049F1E0911701F0E080910A0190916E
:100110000B01EE0FFF1FE050FF4F91838083809112
:100120000A0190910B018130964040F0E091170157
:10013000F0E0EE5EFE4F81E0808306C0E0911701A3
:10014000F0E0EE5EFE4F1082E0911701F0E0E45F18
:10015000FE4F81E08083809118018695809318017D
:10016000809117018F5F809317018091170185306F
:1001700008F4BCCFFF91EF919F918F912F910F9039
:100180000FBE0F901F9018951F920F920FB60F92EF
:1001900011248F939F93EF93FF931092170125C023
:1001A000E0911701F0E0E45FFE4F8081811118C0FB
:1001B000E0911701F0E0E45FFE4F81E08083E09181
:1001C0001701F0E0EE5EFE4F8083E0911701F0E052
:1001D000EE0FFF1FE050FF4F80E09BE09183808394
:1001E000809117018F5F80931701809117018530EF
:1001F000B8F2FF91EF919F918F910F900FBE0F90EA
:100200001F90189587B1806287B918B8089588B192
:100210008F7D88B90895F8940E9407018FE180933B
:10022000190120E00EC0822F90E0FC01E45FFE4F38
:100230001082880F991FFC01E050FF4F118210823D
:100240002F5F253080F318B810928500109284003B
:10025000A0E8B0E01C92E1E8F0E010821092820089
:1002600080E88C9380E09BE09093890080938800E5
:1002700092E090936F0087B18F6187B988B18F61E9
:1002800088B982E48A95F1F700C087B1806287B9A6
:1002900088B1806288B9908387B1807E87B9E8E6AB
:1002A000F0E0808182608083ECE6F0E080818F6105
:1002B0008083789480910C018130E1F780910D0169
:1002C0008130C1F780910E018130A1F780910F013B
:1002D000813081F780911001813061F710928100A7
:1002E000089588E084B988E68AB915B81BB80895DE
:1002F0000E9471010E9402010E940B01FDCFF8943F
:02030000FFCF2D
:00000001FF
